{
  "contractName": "ProofOfExistence",
  "abi": [
    {
      "constant": false,
      "inputs": [
        {
          "internalType": "string",
          "name": "document",
          "type": "string"
        }
      ],
      "name": "notarize",
      "outputs": [],
      "payable": false,
      "stateMutability": "nonpayable",
      "type": "function"
    },
    {
      "constant": true,
      "inputs": [
        {
          "internalType": "string",
          "name": "document",
          "type": "string"
        }
      ],
      "name": "checkDocument",
      "outputs": [
        {
          "internalType": "bool",
          "name": "",
          "type": "bool"
        }
      ],
      "payable": false,
      "stateMutability": "view",
      "type": "function"
    }
  ],
  "bytecode": "0x608060405234801561001057600080fd5b50610318806100206000396000f3fe608060405234801561001057600080fd5b50600436106100365760003560e01c806353fb92331461003b5780637183616c1461010e575b600080fd5b6100f46004803603602081101561005157600080fd5b810190808035906020019064010000000081111561006e57600080fd5b82018360208201111561008057600080fd5b803590602001918460018302840111640100000000831117156100a257600080fd5b91908080601f016020809104026020016040519081016040528093929190818152602001838380828437600081840152601f19601f8201169050808301925050505050505091929192905050506101c9565b604051808215151515815260200191505060405180910390f35b6101c76004803603602081101561012457600080fd5b810190808035906020019064010000000081111561014157600080fd5b82018360208201111561015357600080fd5b8035906020019184600183028401116401000000008311171561017557600080fd5b91908080601f016020809104026020016040519081016040528093929190818152602001838380828437600081840152601f19601f8201169050808301925050505050505091929192905050506101fa565b005b60008060006101d78461020e565b815260200190815260200160002060009054906101000a900460ff169050919050565b61020b6102068261020e565b6102b5565b50565b60006002826040518082805190602001908083835b602083106102465780518252602082019150602081019050602083039250610223565b6001836020036101000a038019825116818451168082178552505050505050905001915050602060405180830381855afa158015610288573d6000803e3d6000fd5b5050506040513d602081101561029d57600080fd5b81019080805190602001909291905050509050919050565b600160008083815260200190815260200160002060006101000a81548160ff0219169083151502179055505056fea265627a7a723158208077488306c765bb1893780c82bec0b7a2efc6396279be868c93f2dbaf3522b364736f6c63430005100032",
  "source": "//SPDX-License-Identifier: GPL-3.0\r\npragma solidity ^0.5.0;\r\n\r\ncontract ProofOfExistence {\r\n    mapping (bytes32 => bool) private proofs;\r\n\r\n    //Store proof of existence in the contract state\r\n    function storeProof(bytes32 proof) private {\r\n        proofs[proof] = true;\r\n    }\r\n\r\n    //Calculate and store proof for a document\r\n    function notarize(string memory document) public {\r\n        storeProof(proofFor(document));\r\n    }\r\n\r\n    //Helper function to get a document's hash sha256\r\n    function proofFor(string memory document) private pure returns (bytes32) {\r\n        return sha256(bytes(document));\r\n    }\r\n\r\n    //Check if a document has been notarized\r\n    function checkDocument(string memory document) public view returns (bool) {\r\n        return proofs[proofFor(document)];\r\n    }\r\n}",
  "sourcePath": "C:/Users/JOZA/Desktop/Solidity Contracts/ProofOfExistence/contracts/ProofOfExistence.sol",
  "compiler": {
    "name": "solc",
    "version": "0.5.16+commit.9c3226ce.Emscripten.clang"
  },
  "schemaVersion": "3.3.2",
  "updatedAt": "2021-05-28T06:42:38.121Z",
  "devdoc": {
    "methods": {}
  },
  "userdoc": {
    "methods": {}
  }
}